:100000000C9434000C9451000C9451000C94510049
:100010000C9451000C9451000C9451000C9451001C
:100020000C9451000C9451000C9451000C9451000C
:100030000C9451000C9451000C9451000C945100FC
:100040000C9451000C9451000C9451000C945100EC
:100050000C9451000C9451000C9451000C945100DC
:100060000C9451000C94510011241FBECFEFD8E026
:10007000DEBFCDBF11E0A0E0B1E0E8E1F1E002C0F9
:1000800005900D92AC30B107D9F721E0ACE0B1E0BA
:1000900001C01D92A231B207E1F70E9453000C94F7
:1000A0008A000C94000080E091E00E945A0080E0F9
:1000B00090E008950F931F93CF93DF93E0910E018B
:1000C000F0910F01238121FF1BC08C01D0E0C0E023
:1000D000F80181918F0160910E0170910F01DB0198
:1000E0001896ED91FC911997882331F00995892B89
:1000F00079F3DFEFCFEFECCF8AE00995892B19F088
:100100008FEF9FEF02C08D2F9C2FDF91CF911F911A
:080110000F910895F894FFCF50
:0C01180048656C6C6F20776F726C64009F
:00000001FF
