:100000000C9434000C9451000C9451000C94510049
:100010000C9451000C9451000C9451000C9451001C
:100020000C9451000C9451000C9451000C9451000C
:100030000C9451000C9451000C9451000C945100FC
:100040000C9453000C9451000C9451000C945100EA
:100050000C9451000C9451000C9451000C945100DC
:100060000C9451000C94510011241FBECFEFD8E026
:10007000DEBFCDBF11E0A0E0B1E0EAE5F2E002C0F2
:1000800005900D92A231B107D9F721E0A2E1B1E0CC
:1000900001C01D92A731B207E1F70E94EE000C9457
:1000A0002B010C9400001F920F920FB60F92112497
:1000B0008F93809116018F5F803419F08093160121
:1000C00007C010921601809115018F5F8093150172
:1000D0008F910F900FBE0F901F9018951092C50032
:1000E00080E18093C400E0ECF0E080818260808356
:1000F000E2ECF0E0808186608083E1ECF0E08081DA
:100100008860808308959091C00095FFFCCF809314
:10011000C60008958091C00087FFFCCF8091C60083
:100120000895CF93DF93EC018991882319F00E9401
:100130008300FACFDF91CF910895CF93DF9300D062
:1001400000D0CDB7DEB74091000150910101609120
:1001500002017091030149835A836B837C8381116F
:100160000CC01C82CE0101960E9491000F900F904E
:100170000F900F90DF91CF910895FE0134962AE001
:10018000622F0E941F01905D92938111F9CFE9CFF8
:1001900085B5856085BDEEE6F0E080818160808375
:1001A00078940895809115018093140184E091E082
:1001B0000E94910089B10E949D00809113018130BD
:1001C00029F089B1817080931301F7CF80911501D7
:1001D00090911401891B8093140108950E946E0070
:1001E0001AB8529AC4E02FEF83ED90E3215080407B
:1001F0009040E1F700C0000089B183FB882780F9B7
:10020000809313010E949D0080E191E00E94910083
:100210005A9A8FE39CE90197F1F700C000008BB177
:100220008C278BB989B183FB882780F980931301D0
:100230000E949D0080E191E00E949100D4CF991B23
:1002400079E004C0991F961708F0961B881F7A95CD
:0A025000C9F780950895F894FFCFD8
:10025A00303030005354415254204C495453454E87
:02026A000A0088
:00000001FF
