:100000000C9434000C943E000C943E000C943E0082
:100010000C943E000C943E000C943E000C943E0068
:100020000C943E000C943E000C943E000C943E0058
:100030000C943E000C943E000C943E000C943E0048
:100040000C943E000C943E000C943E000C943E0038
:100050000C943E000C943E000C943E000C943E0028
:100060000C943E000C943E0011241FBECFEFD8E04C
:10007000DEBFCDBF0E9497000C94B9000C94000025
:100080001092C50080E18093C400E0ECF0E0808134
:1000900082608083E2ECF0E0808186608083E1EC26
:1000A000F0E080818860808308959091C00095FF82
:1000B000FCCF8093C60008958091C00087FFFCCFDD
:1000C0008091C6000895CF93DF93EC018991882336
:1000D00019F00E945500FACFDF91CF910895CF9388
:1000E000DF9300D000D0CDB7DEB720E330E03A8315
:1000F00029831C821B8281110CC01C82CE010196B7
:100100000E9463000F900F900F900F90DF91CF919E
:100110000895FE0134962AE0622F0E94AD00905DA2
:1001200092938111F9CFE9CF81E090E008950E9488
:1001300040008AB10E946F008BB10E946F001AB814
:10014000529A84E08BB98FE39CE90197F1F700C0E4
:1001500000001BB880E090E00895991B79E004C08E
:10016000991F961708F0961B881F7A95C9F78095F6
:060170000895F894FFCF92
:00000001FF
